S017000041746D65676133325F4452495645522E737265632E
S11300000C942A000C943F000C943F000C943F0085
S11300100C943F000C943F000C943F000C943F0060
S11300200C943F000C943F000C943F000C943F0050
S11300300C943F000C943F000C943F000C943F0040
S11300400C943F000C943F000C943F000C943F0030
S11300500C943F0011241FBECFE5D8E0DEBFCDBF16
S113006010E0A0E6B0E0ECE0F6E002C005900D92EE
S1130070AA3BB107D9F70E94B7020C9404030C946D
S11300800000FC01892BA9F120812695269526954F
S11300902770808186FD16C0E82FE770F0E0EE0F30
S11300A0FF1FE059FF4F0190F081E02D308181E086
S11300B090E002C0880F991F2A95E2F7832B808372
S11300C081E00895E081E770F0E0EE0FFF1FE05952
S11300D0FF4F0190F081E02D308181E090E002C07B
S11300E0880F991F2A95E2F780958323808381E006
S11300F0089580E008950097D1F1DC012C912695B4
S1130100269526952770662319F06130C9F031C011
S1130110DC01EC91E770F0E0EE0FFF1FE05AFF4FB7
S11301200190F081E02D308181E090E002C0880FE1
S1130130991F2A95E2F780958323808381E00895AF
S1130140DC01EC91E770F0E0EE0FFF1FE05AFF4F87
S11301500190F081E02D308181E090E002C0880FB1
S1130160991F2A95E2F7832B808381E0089580E02C
S1130170089581E008950097F9F0DC012C9126950B
S113018026952695277061157105C1F0EC91E770ED
S1130190F0E0EE0FFF1FE859FF4F0190F081E02DD2
S11301A0808190E002C0959587952A95E2F7817049
S11301B0FB01808381E0089580E0089580E0089544
S11301C0CF93DF93009759F0EC010E9441006881BE
S11301D067FB662760F9CE010E947B0001C080E0C6
S11301E0DF91CF9108950F931F93CF93DF930097DF
S11301F0E1F08C01C0E0D0E006C0C8018C0F9D1F67
S11302000E9441002196C430D105BCF3C0E0D0E087
S113021007C0CE010496800F911F0E9441002196D1
S1130220C430D105B4F381E001C080E0DF91CF9107
S11302301F910F9108957F928F929F92AF92BF92D8
S1130240CF92DF92EF92FF920F931F93CF93DF939E
S11302501F92CDB7DEB71982009709F444C04B0151
S11302606C01712C00E03BC060E0C601810F911D60
S11302700E947B00082F1F5F01C010E01430A0F320
S1130280A72CB12C61E0C6018A0D9B1D0E947B0046
S113029083EC99E00197F1F700C0000010E01CC066
S11302A0E12EF12CC7010496BE016F5F7F4F8C0DC8
S11302B09D1D0E94BB008981813069F4C501880FAE
S11302C0991F880F991F86579F4FFC01EE0DFF1D44
S11302D08081F40180831F5F143010F37394F3E082
S11302E0F71558F601C000E0802F0F90DF91CF91F1
S11302F01F910F91FF90EF90DF90CF90BF90AF9040
S11303009F908F907F900895CF93DF93EC01219677
S113031061E0CE010E947B0083E08A95F1F7000042
S113032060E0CE010E947B00DF91CF910895FF929F
S11303300F931F93CF93DF93009701F1F62E8C0157
S113034060E00E947B00C0E0D0E010C06F2D70E040
S11303500C2E02C0759567950A94E2F7CE010296B9
S11303606170800F911F0E947B002196C830D105D7
S11303706CF3C8010E94840181E001C080E0DF9138
S1130380CF911F910F91FF9008950F931F93CF93D7
S1130390DF93009709F44BC08C010E94E000C80170
S11303A001960E94E000C0E0D0E007C0CE010296B2
S11303B0800F911F0E94E0002196C830D105B4F34C
S11303C087E893E10197F1F700C0000068E3C801F2
S11303D00E94970181EE94E00197F1F700C00000BC
S11303E068E3C8010E9497018BE792E90197F1F74E
S11303F000C0000068E3C8010E94970161E0C801E1
S11304000E94970162E0C8010E94970166E0C8015A
S11304100E9497016EE0C8010E94970168E3C80139
S11304200E94970160E8C8010E94970101C080E022
S1130430DF91CF911F910F910895623071F018F4FC
S1130440613031F00895633069F0643081F00895CB
S11304506FE7640F0E94970108956FEB640F0E9489
S11304609701089563E9640F0E949701089563ED6D
S1130470640F0E9497010895FF920F931F93CF93E7
S1130480DF93009701F1F62E8C0161E00E947B005E
S1130490C0E0D0E010C06F2D70E00C2E02C0759546
S11304A067950A94E2F7CE0102966170800F911F5E
S11304B00E947B002196C830D1056CF3C8010E94CC
S11304C0840181E001C080E0DF91CF911F910F9101
S11304D0FF9008951F93CF93DF93009769F0342F13
S11304E0162FEC01422F632F0E941D02612FCE01B3
S11304F00E943C0281E001C080E0DF91CF911F9116
S113050008950F931F93CF93DF938C01EB01892BF5
S113051051F0209729F407C02196C8010E943C029B
S113052068816111F9CF80E0DF91CF911F910F9124
S113053008950F931F93CF93DF93009781F0611574
S1130540710579F0342F8B01EC01422F632F0E9447
S11305501D02B801CE010E94810281E003C080E047
S113056001C080E0DF91CF911F910F910895CF9347
S1130570DF931F92CDB7DEB788E790E00E94C501F4
S113058025E041E06AE970E088E790E00E94990282
S113059025E042E063EA70E088E790E00E94990277
S11305A02FE986E891E0215080409040E1F700C0B7
S11305B0000061E088E790E00E9497012FE986E857
S11305C091E0215080409040E1F700C0000021E01C
S11305D041E06AEA70E088E790E00E94990282E8CC
S11305E090E00E94F300BE016F5F7F4F82E890E0CD
S11305F00E941B0169816332B1F321E042E088E784
S10F060090E00E946A02EFCFF894FFCF54
S113060C3B0038003500320039003600330030002E
S113061C3A00370034003100111900081018202852
S113062C3038030B131B636B737B3738392F34351A
S113063C362A3132332D23303D2B6869207468659A
S113064C72650049736D61696C006B6579706164E6
S10D065C206973207265616479005F
S9030000FC
