:100000000C942A000C9446010C946F010C949801F6
:100010000C9447000C9447000C9447000C94470044
:100020000C9447000C9447000C948C030C94B80378
:100030000C9447000C9447000C9447000C94470024
:100040000C94AA000C9447000C9447000C944700B1
:100050000C94470011241FBECFE5D8E0DEBFCDBF12
:1000600010E0A0E6B0E0EAE2F0E102C005900D92F7
:10007000AC38B107D9F720E0ACE8B0E001C01D9280
:10008000A23BB207E1F70E9453030C9413080C94AF
:100090000000FC01892B89F09281292F2295220FE3
:1000A000220F207C95819F738081922B80FB95F994
:1000B000907E958397B981E0089580E00895FC01D2
:1000C000892B99F09181292F27709481987F8381C2
:1000D000922B80FB93F99F789068948396B9339B19
:1000E00006C00E94C10181E0089580E0089581E08A
:1000F0000895CF93DF93009741F0EC010E944900EF
:10010000CE010E945F0081E001C080E0DF91CF91CD
:1001100008958830D8F461157105D1F097B1892B15
:1001200087B986B1806486B9339905C0349BFECF08
:1001300086B1806186B924B185B190E0982F882777
:10014000822BFB019183808381E0089580E00895F4
:1001500080E008951F920F920FB60F9211248F9393
:1001600086B1806186B98F910F900FBE0F901F905E
:100170001895FC01892BA9F12081269526952695B5
:100180002770808186FD16C0E82FE770F0E0EE0F43
:10019000FF1FE859FF4F0190F081E02D308181E091
:1001A00090E002C0880F991F2A95E2F7832B808385
:1001B00081E00895E081E770F0E0EE0FFF1FE8595D
:1001C000FF4F0190F081E02D308181E090E002C08E
:1001D000880F991F2A95E2F780958323808381E019
:1001E000089580E008950097D1F1DC012C912695C7
:1001F000269526952770662319F06130C9F031C025
:10020000DC01EC91E770F0E0EE0FFF1FE05AFF4FCA
:100210000190F081E02D308181E090E002C0880FF4
:10022000991F2A95E2F780958323808381E00895C2
:10023000DC01EC91E770F0E0EE0FFF1FE05AFF4F9A
:100240000190F081E02D308181E090E002C0880FC4
:10025000991F2A95E2F7832B808381E0089580E03F
:10026000089581E00895CF93DF93009759F0EC0152
:100270000E94B900688167FB662760F9CE010E9481
:10028000F30001C080E0DF91CF9108951F920F929B
:100290000FB60F9211242F933F934F935F936F9359
:1002A0007F938F939F93AF93BF93EF93FF93E091CF
:1002B0009000F0919100309709F00995FF91EF912E
:1002C000BF91AF919F918F917F916F915F914F916E
:1002D0003F912F910F900FBE0F901F9018951F9276
:1002E0000F920FB60F9211242F933F934F935F936A
:1002F0006F937F938F939F93AF93BF93EF93FF93EE
:10030000E0918C00F0918D00309709F00995FF91F4
:10031000EF91BF91AF919F918F917F916F915F917D
:100320004F913F912F910F900FBE0F901F901895F6
:100330001F920F920FB60F9211242F933F934F935A
:100340005F936F937F938F939F93AF93BF93EF933D
:10035000FF93E0918E00F0918F00309709F009959E
:10036000FF91EF91BF91AF919F918F917F916F918D
:100370005F914F913F912F910F900FBE0F901F9063
:10038000189578940895CF93DF93EC01219661E05E
:10039000CE010E94F30083E08A95F1F7000060E04F
:1003A000CE010E94F300DF91CF910895FF920F9349
:1003B0001F93CF93DF93009701F1F62E8C0160E03D
:1003C0000E94F300C0E0D0E010C06F2D70E00C2E52
:1003D00002C0759567950A94E2F7CE0102966170A6
:1003E000800F911F0E94F3002196C830D1056CF355
:1003F000C8010E94C30181E001C080E0DF91CF917C
:100400001F910F91FF9008950F931F93CF93DF9348
:10041000009709F44BC08C010E943301C80101967A
:100420000E943301C0E0D0E007C0CE010296800FE9
:10043000911F0E9433012196C830D105B4F387E89B
:1004400093E10197F1F700C0000068E3C8010E9442
:10045000D60181EE94E00197F1F700C0000068E357
:10046000C8010E94D6018BE792E90197F1F700C01D
:10047000000068E3C8010E94D60161E0C8010E9443
:10048000D60162E0C8010E94D60166E0C8010E9460
:10049000D6016EE0C8010E94D60168E3C8010E943F
:1004A000D60160E8C8010E94D60101C080E0DF915A
:1004B000CF911F910F910895623071F018F461305F
:1004C00031F00895633069F0643081F008956FE78A
:1004D000640F0E94D60108956FEB640F0E94D6014D
:1004E000089563E9640F0E94D601089563ED640FD7
:1004F0000E94D6010895FF920F931F93CF93DF932D
:10050000009701F1F62E8C0161E00E94F300C0E03B
:10051000D0E010C06F2D70E00C2E02C0759567956D
:100520000A94E2F7CE0102966170800F911F0E943B
:10053000F3002196C830D1056CF3C8010E94C301B5
:1005400081E001C080E0DF91CF911F910F91FF907A
:1005500008950F931F93CF93DF938C01EB01892BA9
:1005600051F0209729F407C02196C8010E947B0210
:1005700068816111F9CF80E0DF91CF911F910F91D8
:1005800008950F931F93CF93DF93009781F0611528
:10059000710579F0342F8B01EC01422F632F0E94FB
:1005A0005C02B801CE010E94A90281E003C080E094
:1005B00001C080E0DF91CF911F910F910895EF92DC
:1005C000FF920F931F93CF93DF9300D000D000D002
:1005D000CDB7DEB7FE01319626E0DF011D922A95E8
:1005E000E9F76115710571F18B01E92EF82E45E0EF
:1005F00050E060E270E0C8010E942205F801158217
:10060000EF92FF928AE790E09F938F93CE0101963D
:100610009F938F930E9429050F900F900F900F903A
:100620000F900F9080E005C0F801E80FF11D908356
:100630008F5FE1E0F0E0EC0FFD1FE80FF11D90810E
:100640009111F2CF80E026960FB6F894DEBF0FBE70
:10065000CDBFDF91CF911F910F91FF90EF90089543
:10066000CF93DF9300D0CDB7DEB71A821982BE01D7
:100670006F5F7F4F82E00E94890029813A81AEEE50
:10068000B2E00E9413050E94850420E030ED4FEB9C
:1006900054E40E94E4030E945604862F0F900F90AA
:1006A000DF91CF910895E4EAF0E081E082838383D3
:1006B00083E081831082CF010E94790080E790E07F
:1006C0000E9404026DE770E080E790E00E94A902BA
:1006D0000E94300390E09093A3008093A2008436A0
:1006E000910568F062E970E00E94DF0221E042E0DB
:1006F00062E970E080E790E00E94C102E9CF62E920
:1007000070E00E94DF0221E042E062E970E080E7F1
:1007100090E00E94C102DCCF1F920F920FB60F92A1
:1007200011242F933F934F935F936F937F938F93F6
:100730009F93AF93BF93EF93FF938091AD008F5F33
:100740008093AD00E091B000F091B1000995FF9168
:10075000EF91BF91AF919F918F917F916F915F9139
:100760004F913F912F910F900FBE0F901F901895B2
:100770001F920F920FB60F9211242F933F934F9316
:100780005F936F937F938F939F93AF93BF93EF93F9
:10079000FF938091AA008F5F8093AA00E091AE0042
:1007A000F091AF000995FF91EF91BF91AF919F91AB
:1007B0008F917F916F915F914F913F912F910F900A
:1007C0000FBE0F901F9018950E94F8030C94D90447
:1007D0000E94D20458F00E94CB0440F029F45F3FFD
:1007E00029F00C94C20451110C940D050C94C8040A
:1007F0000E94EA0468F39923B1F3552391F3951B02
:10080000550BBB27AA2762177307840738F09F5F31
:100810005F4F220F331F441FAA1FA9F335D00E2E9E
:100820003AF0E0E832D091505040E695001CCAF70B
:100830002BD0FE2F29D0660F771F881FBB1F2617CE
:1008400037074807AB07B0E809F0BB0B802DBF01A5
:10085000FF2793585F4F3AF09E3F510578F00C9474
:10086000C2040C940D055F3FE4F3983ED4F38695E3
:1008700077956795B795F7959F5FC9F7880F911D95
:100880009695879597F90895E1E0660F771F881F81
:10089000BB1F621773078407BA0720F0621B730B34
:1008A000840BBA0BEE1F88F7E09508950E94F204BE
:1008B00088F09F5798F0B92F9927B751B0F0E1F021
:1008C000660F771F881F991F1AF0BA95C9F714C0D1
:1008D000B13091F00E940C05B1E008950C940C0524
:1008E000672F782F8827B85F39F0B93FCCF386950A
:1008F00077956795B395D9F73EF490958095709567
:1009000061957F4F8F4F9F4F0895E89409C097FBE3
:100910003EF490958095709561957F4F8F4F9F4FD6
:100920009923A9F0F92F96E9BB279395F69587951A
:1009300077956795B795F111F8CFFAF4BB0F11F4DD
:1009400060FF1BC06F5F7F4F8F4F9F4F16C0882384
:1009500011F096E911C0772321F09EE8872F762FBA
:1009600005C0662371F096E8862F70E060E02AF0FB
:100970009A95660F771F881FDAF7880F96958795E7
:1009800097F9089597F99F6780E870E060E008950F
:100990009FEF80EC089500240A9416161706180697
:1009A0000906089500240A94121613061406050673
:1009B0000895092E0394000C11F4882352F0BB0F04
:1009C00040F4BF2B11F460FF04C06F5F7F4F8F4F67
:1009D0009F4F089557FD9058440F551F59F05F3FA2
:1009E00071F04795880F97FB991F61F09F3F79F051
:1009F00087950895121613061406551FF2CF4695D3
:100A0000F1DF08C0161617061806991FF1CF869554
:100A10007105610508940895E894BB276627772738
:100A2000CB0197F90895A29FB001B39FC001A39F86
:100A3000700D811D1124911DB29F700D811D112417
:100A4000911D0895DC0101C06D9341505040E0F7C5
:100A50000895AEE0B0E0EFE2F5E00C94EA070D890E
:100A60001E8986E08C831A8309838FEF9FE79E831C
:100A70008D83AE01475E5F4F6F89788DCE01019601
:100A80000E944B05EF81F885E00FF11F10822E9632
:100A9000E4E00C940608ABE0B0E0E1E5F5E00C948E
:100AA000DC076C017B018A01FC01178216828381BD
:100AB00081FFCCC1CE0101963C01F6019381F70183
:100AC00093FD859193FF81917F01882309F4BAC139
:100AD000853239F493FD859193FF81917F018532B1
:100AE00029F4B60190E00E944207E7CF912C212C17
:100AF000312CFFE1F315D8F08B3279F038F48032E5
:100B000079F08332A1F4232D20611DC08D3261F074
:100B1000803369F4232D216016C0832D8260382E26
:100B2000E32DE4603E2E2AC0F32DF8601DC037FC93
:100B30002DC020ED280F2A3040F08E32B9F436FC5B
:100B400081C1232D2064322E19C036FE06C08AE0F2
:100B5000989E200D1124922E11C0EAE02E9E200DA9
:100B60001124222EF32DF0623F2E08C08C3621F482
:100B7000832D8068382E02C0883641F4F70193FD3A
:100B8000859193FF81917F018111B3CF982F9F7D34
:100B90009554933028F40C5F1F4F9FE399830DC049
:100BA000833631F0833771F0833509F059C021C0A5
:100BB000F801808189830E5F1F4F88248394912CD4
:100BC000530113C02801F2E04F0E511CF801A08020
:100BD000B18036FE03C0692D70E002C06FEF7FEF79
:100BE000C5010E9437074C018201F32DFF773F2E8C
:100BF00016C0280122E0420E511CF801A080B180ED
:100C000036FE03C0692D70E002C06FEF7FEFC501B3
:100C10000E942C074C01F32DF0683F2E820133FC1B
:100C20001BC0822D90E088169906B0F4B60180E2D0
:100C300090E00E9442072A94F4CFF50137FC859199
:100C400037FE81915F01B60190E00E9442072110BA
:100C50002A9421E0821A91088114910471F7E8C066
:100C6000843611F0893641F5F80137FE07C06081FE
:100C70007181828193810C5F1F4F08C060817181F7
:100C8000072E000C880B990B0E5F1F4FF32DFF767C
:100C90003F2E97FF09C090958095709561957F4F85
:100CA0008F4F9F4FF0683F2E2AE030E0A3010E9453
:100CB0007E07882E861845C0853731F4232D2F7E78
:100CC000B22E2AE030E025C0932D997FB92E8F36C1
:100CD000C1F018F4883579F0B5C0803719F088373D
:100CE00021F0B0C0E92FE061BE2EB4FE0DC0FB2D97
:100CF000F460BF2E09C034FE0AC0292F2660B22E30
:100D000006C028E030E005C020E130E002C020E16C
:100D100032E0F801B7FE07C0608171818281938162
:100D20000C5F1F4F06C06081718180E090E00E5F14
:100D30001F4FA3010E947E07882E8618FB2DFF7788
:100D40003F2E36FE0DC0232D2E7FA22E891458F47F
:100D500034FE0BC032FC09C0832D8E7EA82E05C048
:100D6000B82CA32C03C0B82C01C0B92CA4FE0FC012
:100D7000FE01E80DF11D8081803321F49A2D997ECA
:100D8000A92E09C0A2FE06C0B394B39404C08A2D54
:100D9000867809F0B394A3FC11C0A0FE06C0B2147B
:100DA00088F4280C922C9B180EC0B21460F4B60183
:100DB00080E290E00E944207B394F7CFB21418F497
:100DC0002B1802C0982C212CA4FE10C0B60180E381
:100DD00090E00E944207A2FE17C0A1FC03C088E772
:100DE00090E002C088E590E0B6010CC08A2D8678BC
:100DF00059F0A1FE02C08BE201C080E2A7FC8DE2A7
:100E0000B60190E00E944207891438F4B60180E3ED
:100E100090E00E9442079A94F7CF8A94F301E80D7C
:100E2000F11D8081B60190E00E9442078110F5CF4C
:100E3000222009F442CEB60180E290E00E944207EF
:100E40002A94F6CFF6018681978102C08FEF9FEF3B
:100E50002B96E2E10C94F807FC010590615070407C
:100E60000110D8F7809590958E0F9F1F0895FC0173
:100E70006150704001900110D8F7809590958E0FC9
:100E80009F1F08950F931F93CF93DF93FB0123813F
:100E900021FD03C08FEF9FEF2CC022FF16C04681BB
:100EA0005781248135814217530744F4A081B181D1
:100EB0009D012F5F3F4F318320838C9326813781A3
:100EC0002F5F3F4F3783268314C08B01EC01FB015A
:100ED0000084F185E02D0995892BE1F6D80116965D
:100EE0008D919C911797019617969C938E931697C8
:100EF000CE01DF91CF911F910F910895FA01AA279A
:100F0000283051F1203181F1E8946F936E7F6E5F4C
:100F10007F4F8F4F9F4FAF4FB1E03ED0B4E03CD0FA
:100F2000670F781F891F9A1FA11D680F791F8A1FDD
:100F3000911DA11D6A0F711D811D911DA11D20D044
:100F400009F468943F912AE0269F11243019305DFE
:100F50003193DEF6CF010895462F4770405D4193EF
:100F6000B3E00FD0C9F7F6CF462F4F70405D4A333C
:100F700018F0495D31FD4052419302D0A9F7EACF04
:100F8000B4E0A6959795879577956795BA95C9F733
:100F900000976105710508959B01AC010A2E069426
:100FA0005795479537952795BA95C9F7620F731FDF
:100FB000841F951FA01D08952F923F924F925F921C
:100FC0006F927F928F929F92AF92BF92CF92DF9259
:100FD000EF92FF920F931F93CF93DF93CDB7DEB7BE
:100FE000CA1BDB0B0FB6F894DEBF0FBECDBF099452
:100FF0002A88398848885F846E847D848C849B84A9
:10100000AA84B984C884DF80EE80FD800C811B81B6
:10101000AA81B981CE0FD11D0FB6F894DEBF0FBEE5
:0A102000CDBFED010895F894FFCF55
:10102A003B003800350032003A0037003400310006
:10103A00232B020A121A222A323A25690074656D94
:0C104A007065726174757265203D2000B5
:00000001FF
