:100000000C9434000C9420010C9449010C9472015E
:100010000C9451000C9451000C9451000C9451001C
:100020000C9451000C9451000C9464020C949002B6
:100030000C9451000C9451000C9451000C945100FC
:100040000C9451000C9451000C9451000C945100EC
:100050000C945100FA01FF01040209020E0213027E
:1000600018021D022202270211241FBECFE5D8E08C
:10007000DEBFCDBF10E0A0E6B0E0EAECF7E002C0E2
:1000800005900D92A637B107D9F720E0A6E7B0E0BA
:1000900001C01D92AA38B207E1F70E9455020C94E4
:1000A000E3030C940000FC01892BA9F12081269523
:1000B000269526952770808186FD16C0E82FE7706B
:1000C000F0E0EE0FFF1FE859FF4F0190F081E02DA7
:1000D000308181E090E002C0880F991F2A95E2F7F5
:1000E000832B808381E00895E081E770F0E0EE0FDC
:1000F000FF1FE859FF4F0190F081E02D308181E032
:1001000090E002C0880F991F2A95E2F7809583231B
:10011000808381E0089580E00895843060F4E82FC2
:10012000F0E0EE0FFF1FE859FF4F0190F081E02D46
:10013000608381E0089580E008950097D1F1DC01AB
:100140002C912695269526952770662319F0613007
:10015000C9F031C0DC01EC91E770F0E0EE0FFF1F59
:10016000E05AFF4F0190F081E02D308181E090E076
:1001700002C0880F991F2A95E2F780958323808318
:1001800081E00895DC01EC91E770F0E0EE0FFF1FD5
:10019000E05AFF4F0190F081E02D308181E090E046
:1001A00002C0880F991F2A95E2F7832B808381E094
:1001B000089580E0089581E00895843060F4E82F88
:1001C000F0E0EE0FFF1FE05AFF4F0190F081E02DAD
:1001D000608381E0089580E008950097E1F0DC01FC
:1001E0002C912695269526952770EC91E770F0E0E6
:1001F000EE0FFF1FE05AFF4F0190F081E02D30819C
:1002000081E090E002C0880F991F2A95E2F78327CA
:10021000808381E0089580E00895CF93DF93009775
:1002200059F0EC010E945300688167FB662760F972
:10023000CE010E949D0001C080E0DF91CF91089522
:100240001F920F920FB60F9211242F933F934F934B
:100250005F936F937F938F939F93AF93BF93EF932E
:10026000FF93E0917A00F0917B00309709F00995B7
:10027000FF91EF91BF91AF919F918F917F916F917E
:100280005F914F913F912F910F900FBE0F901F9054
:1002900018951F920F920FB60F9211242F933F9330
:1002A0004F935F936F937F938F939F93AF93BF937E
:1002B000EF93FF93E0917600F0917700309709F08B
:1002C0000995FF91EF91BF91AF919F918F917F9190
:1002D0006F915F914F913F912F910F900FBE0F90B3
:1002E0001F9018951F920F920FB60F9211242F9303
:1002F0003F934F935F936F937F938F939F93AF93AE
:10030000BF93EF93FF93E0917800F09179003097DD
:1003100009F00995FF91EF91BF91AF919F918F9156
:100320007F916F915F914F913F912F910F900FBEF1
:100330000F901F90189578940895CF93DF931F9294
:10034000CDB7DEB70097F1F0FC012081922F9770B6
:100350008981887F892B922F96959695969597708F
:10036000990F990F990F877C892B26FB222720F95B
:100370008F7B20FB87F98983CE0101960E940D01B6
:1003800081E001C080E00F90DF91CF910895CF937D
:10039000DF931F92CDB7DEB70097F1F0FC0120810B
:1003A000922F97708981887F892B922F96959695A9
:1003B00096959770990F990F990F877C892B26FB3B
:1003C000222720F98F7B20FB87F98983CE010196B4
:1003D0000E94ED0081E001C080E00F90DF91CF919D
:1003E000089590E08A309105B0F5FC01E65DFF4F7D
:1003F0000C94DD036FE780E00E94DD0008956DE05E
:1004000080E00E94DD00089567EB80E00E94DD003F
:1004100008956FE980E00E94DD0008956DEC80E0B2
:100420000E94DD0008956BED80E00E94DD000895DC
:100430006BEF80E00E94DD0008956FE080E00E9495
:10044000DD0008956FEF80E00E94DD0008956FEDFC
:1004500080E00E94DD00089580917C008F5F809392
:100460007C008A3F99F480917D008F5F80937D00AE
:100470008A3011F410927D0080917D000E94F1017C
:1004800080E790E00E94C70110927C00089580EF01
:100490000E94DB0381E790E00E94BC026CE272E004
:1004A00081E790E00E94B30308956EEF80E00E9420
:1004B0008D006FE780E00E94DD0080E790E00E9401
:1004C0009D010E944702FFCF1F920F920FB60F921D
:1004D00011242F933F934F935F936F937F938F9349
:1004E0009F93AF93BF93EF93FF93809181008F5FB2
:1004F00080938100E0918400F09185000995FF913F
:10050000EF91BF91AF919F918F917F916F915F918B
:100510004F913F912F910F900FBE0F901F90189504
:100520001F920F920FB60F9211242F933F934F9368
:100530005F936F937F938F939F93AF93BF93EF934B
:10054000FF9380917E008F5F80937E00E091820018
:10055000F09183000995FF91EF91BF91AF919F9129
:100560008F917F916F915F914F913F912F910F905C
:100570000FBE0F901F901895FC01892B09F4EFC056
:10058000848182BF8081811110C083B7806883BF5E
:1005900083B78F7B83BF83B7877F83BF83B78F7D0D
:1005A00083BF83B78F7E83BF23C0823081F483B73C
:1005B000806883BF83B78F7B83BF83B7886083BF27
:1005C00083B78F7D83BF83B78F7E83BF11C0833096
:1005D00079F483B78F7783BF83B7806483BF83B792
:1005E000886083BF83B78F7D83BF83B78F7E83BFD0
:1005F0008081823029F58281811107C083B78F7D88
:1006000083BF83B78F7E83BF41C0813039F483B706
:100610008F7D83BF83B7806183BF38C0823039F458
:1006200083B7806283BF83B78F7E83BF2FC0833041
:1006300069F583B7806283BF83B7806183BF26C0BB
:10064000833021F58381811107C083B78F7D83BFFC
:1006500083B78F7E83BF1AC0813039F483B78F7D13
:1006600083BF83B7806183BF11C0823039F483B701
:10067000806283BF83B78F7E83BF08C0833031F42D
:1006800083B7806283BF83B7806183BF818181111B
:100690000BC083B78E7F83BF83B78D7F83BF83B744
:1006A0008B7F83BF81E00895813059F483B78160E7
:1006B00083BF83B78D7F83BF83B78B7F83BF81E089
:1006C0000895823059F483B78E7F83BF83B78260E9
:1006D00083BF83B78B7F83BF81E00895833059F454
:1006E00083B7816083BF83B7826083BF83B78B7F0B
:1006F00083BF81E00895843059F483B78E7F83BF30
:1007000083B78D7F83BF83B7846083BF81E0089503
:10071000853059F483B7816083BF83B78D7F83BFF2
:1007200083B7846083BF81E00895863059F483B72E
:100730008E7F83BF83B7826083BF83B7846083BFAC
:1007400081E00895873069F483B7816083BF83B700
:10075000826083BF83B7846083BF81E0089580E0B7
:10076000089581E008950F931F93CF93DF9300972F
:10077000D1F08B01EC010E949B018881811107C09F
:1007800089B7816089BF10938700009386008881B4
:10079000823059F489B7826089BF10938900009331
:1007A000880081E003C080E001C081E0DF91CF914B
:1007B0001F910F9108958CBF0895EE0FFF1F0590B4
:0A07C000F491E02D0994F894FFCFA6
:1007CA003B003800350032003A003700340031006F
:0607DA0002020200000013
:00000001FF
