S017000041746D65676133325F4452495645522E737265632E
S11300000C942A000C943F000C943F000C943F0085
S11300100C943F000C943F000C943F000C943F0060
S11300200C943F000C943F000C943F000C943F0050
S11300300C943F000C943F000C943F000C943F0040
S11300400C943F000C943F000C943F000C943F0030
S11300500C943F0011241FBECFE5D8E0DEBFCDBF16
S113006010E0A0E6B0E0ECE2F4E002C005900D92EE
S1130070A639B107D9F70E94F4010C9414020C9428
S11300800000FC01892BA9F120812695269526954F
S11300902770808186FD16C0E82FE770F0E0EE0F30
S11300A0FF1FE859FF4F0190F081E02D308181E07E
S11300B090E002C0880F991F2A95E2F7832B808372
S11300C081E00895E081E770F0E0EE0FFF1FE8594A
S11300D0FF4F0190F081E02D308181E090E002C07B
S11300E0880F991F2A95E2F780958323808381E006
S11300F0089580E008950097D1F1DC012C912695B4
S1130100269526952770662319F06130C9F031C011
S1130110DC01EC91E770F0E0EE0FFF1FE05AFF4FB7
S11301200190F081E02D308181E090E002C0880FE1
S1130130991F2A95E2F780958323808381E00895AF
S1130140DC01EC91E770F0E0EE0FFF1FE05AFF4F87
S11301500190F081E02D308181E090E002C0880FB1
S1130160991F2A95E2F7832B808381E0089580E02C
S1130170089581E00895CF93DF93009759F0EC013F
S11301800E944100688167FB662760F9CE010E94E6
S11301907B0001C080E0DF91CF910895EF92FF9240
S11301A01F93CF93DF937C01162FC0E0D0E010C0E3
S11301B0612F70E00C2E02C0759567950A94E2F7E2
S11301C0CE01029661708E0D9F1D0E947B002196C8
S11301D0C430D1056CF3DF91CF911F91FF90EF9064
S11301E00895CF93DF93EC01219661E0CE010E9444
S11301F07B0083E08A95F1F7000060E0CE010E9465
S11302007B00DF91CF9108951F93CF93DF930097E5
S1130210B9F0162FEC0160E00E947B00612F62951B
S11302206F70CE010E94CE00CE010E94F100612FBA
S1130230CE010E94CE00CE010E94F10081E001C0F7
S113024080E0DF91CF911F9108950F931F93CF9377
S1130250DF93009709F44CC0EC010E94BB00CE016F
S113026001960E94BB0000E010E008C0C80102969D
S11302708C0F9D1F0E94BB000F5F1F4F04301105A0
S1130280ACF387E893E10197F1F700C0000068E35D
S1130290CE010E94040181EE94E00197F1F700C0C1
S11302A0000068E3CE010E9404018BE792E9019704
S11302B0F1F700C0000068E3CE010E94040161E090
S11302C0CE010E94040162E0CE010E94040166E0B6
S11302D0CE010E9404016EE0CE010E94040168E296
S11302E0CE010E94040160E8CE010E94040101C015
S11302F080E0DF91CF911F910F910895623071F0EA
S113030018F4613031F00895633069F0643081F09D
S113031008956FE7640F0E94040108956FEB640F62
S11303200E940401089563E9640F0E940401089582
S113033063ED640F0E94040108951F93CF93DF932C
S11303400097B9F0162FEC0161E00E947B00612F49
S113035062956F70CE010E94CE00CE010E94F10022
S1130360612FCE010E94CE00CE010E94F10081E0F7
S113037001C080E0DF91CF911F9108950F931F93E7
S1130380CF93DF938C01EB01892B61F0209729F443
S11303900BC02196C8010E949D0168816111F9CFAB
S11303A081E003C080E001C080E0DF91CF911F9124
S11303B00F9108950F931F93CF93DF93009771F0DC
S11303C06115710559F0342F8B01EC01422F632F15
S11303D00E947E01B801CE010E94BE0180E0DF913F
S11303E0CF911F910F91089580E790E00E9425011D
S11303F021E041E066E770E080E790E00E94DA01E6
S113040021E042E066E870E080E790E00E94DA01D3
S11304102FE986E891E0215080409040E1F700C048
S10F0420000080E090E00895F894FFCF05
S113042C3B003800350032003A003700340031000C
S113043C0919202830386869207468657265206948
S113044C736D61696C006C6561726E20696E2064F9
S109045C657074680000E5
S9030000FC
