S017000041746D65676133325F4452495645522E737265632E
S11300000C942A000C94D6000C94FF000C94280144
S11300100C9447000C9447000C9447000C94470040
S11300200C9447000C9447000C9447000C94470030
S11300300C9447000C9447000C9447000C94470020
S11300400C9447000C9447000C9447000C94470010
S11300500C94470011241FBECFE5D8E0DEBFCDBF0E
S113006010E0A0E6B0E0EAE9F6E002C005900D92E7
S1130070A637B107D9F720E0A6E7B0E001C01D928A
S1130080A83AB207E1F70E9426020C944B030C94A1
S11300900000FC01892BA9F120812695269526953F
S11300A02770808186FD16C0E82FE770F0E0EE0F20
S11300B0FF1FE859FF4F0190F081E02D308181E06E
S11300C090E002C0880F991F2A95E2F7832B808362
S11300D081E00895E081E770F0E0EE0FFF1FE8593A
S11300E0FF4F0190F081E02D308181E090E002C06B
S11300F0880F991F2A95E2F780958323808381E0F6
S1130100089580E008950097D1F1DC012C912695A3
S1130110269526952770662319F06130C9F031C001
S1130120DC01EC91E770F0E0EE0FFF1FE05AFF4FA7
S11301300190F081E02D308181E090E002C0880FD1
S1130140991F2A95E2F780958323808381E008959F
S1130150DC01EC91E770F0E0EE0FFF1FE05AFF4F77
S11301600190F081E02D308181E090E002C0880FA1
S1130170991F2A95E2F7832B808381E0089580E01C
S1130180089581E00895CF93DF93009759F0EC012F
S11301900E944900688167FB662760F9CE010E94CE
S11301A0830001C080E0DF91CF9108951F920F92E8
S11301B00FB60F9211242F933F934F935F936F9336
S11301C07F938F939F93AF93BF93EF93FF93E091AC
S11301D07A00F0917B00309709F00995FF91EF9137
S11301E0BF91AF919F918F917F916F915F914F914B
S11301F03F912F910F900FBE0F901F9018951F9253
S11302000F920FB60F9211242F933F934F935F9346
S11302106F937F938F939F93AF93BF93EF93FF93CA
S1130220E0917600F0917700309709F00995FF91FD
S1130230EF91BF91AF919F918F917F916F915F915A
S11302404F913F912F910F900FBE0F901F901895D3
S11302501F920F920FB60F9211242F933F934F9337
S11302605F936F937F938F939F93AF93BF93EF931A
S1130270FF93E0917800F0917900309709F00995A7
S1130280FF91EF91BF91AF919F918F917F916F916A
S11302905F914F913F912F910F900FBE0F901F9040
S11302A0189578940895F8940895EF92FF921F9307
S11302B0CF93DF937C01162FC0E0D0E010C0612FF4
S11302C070E00C2E02C0759567950A94E2F7CE0192
S11302D0029661708E0D9F1D0E9483002196C4308A
S11302E0D1056CF3DF91CF911F91FF90EF900895AA
S11302F0CF93DF93EC01219661E0CE010E9483004D
S113030083E08A95F1F7000060E0CE010E9483004B
S1130310DF91CF9108951F93CF93DF930097B9F0A6
S1130320162FEC0160E00E948300612F62956F70CC
S1130330CE010E945501CE010E947801612FCE01A9
S11303400E945501CE010E94780181E001C080E045
S1130350DF91CF911F9108950F931F93CF93DF9354
S1130360009709F44CC0EC010E94C300CE01019631
S11303700E94C30000E010E008C0C80102968C0F80
S11303809D1F0E94C3000F5F1F4F04301105ACF383
S113039087E893E10197F1F700C0000068E3CE011C
S11303A00E948B0181EE94E00197F1F700C00000F8
S11303B068E3CE010E948B018BE792E90197F1F784
S11303C000C0000068E3CE010E948B0161E0CE0111
S11303D00E948B0162E0CE010E948B0166E0CE0197
S11303E00E948B016EE0CE010E948B0168E2CE0177
S11303F00E948B0160E8CE010E948B0101C080E065
S1130400DF91CF911F910F9108951F93CF93DF93A5
S11304100097B9F0162FEC0161E00E948300612F70
S113042062956F70CE010E945501CE010E94780141
S1130430612FCE010E945501CE010E94780181E016
S113044001C080E0DF91CF911F910895ECE7F0E0C7
S113045083E0858383E390E0A0E0B0E0818392832E
S1130460A383B483108610821782128611861682A3
S1130470CF010E944E0280E790E00E94AC0180E030
S11304800E943F038093A50060E00E9431036091C5
S1130490A50080E790E00E940502F1CFFC01818174
S11304A089B98BB18D7F8BB98581823029F128F48C
S11304B0882341F0813099F045C0833051F1843074
S11304C0A9F140C080B5806880BD80B58D7F80BDB6
S11304D080B58B7F80BD8AB18B7F8AB933C080B5EC
S11304E0806880BD80B5826080BD80B58B7F80BD13
S11304F08AB18B7F8AB926C080B5806880BD80B5FB
S11305008D7F80BD80B5846080BD8AB18B7F8AB9C0
S113051019C080B5806880BD80B5826080BD80B51B
S1130520846080BD8AB18B7F8AB90CC080B5806835
S113053080BD80B5826080BD80B5846080BD8AB195
S113054084608AB98681813071F018F08230A9F014
S11305501DC080B5806880BD80B58F7E80BD80B5AC
S11305608F7D80BD13C080B5806880BD80B58F7ECF
S113057080BD80B5806280BD09C080B5806880BDC3
S113058080B5806180BD80B5806280BD868188230E
S113059019F0813041F00DC080B5806880BD80B510
S11305A0877F80BD06C080B5806880BD80B58860C7
S11305B080BD8081882319F0813041F00DC080B561
S11305C0806880BD80B58F7B80BD06C080B58068A3
S11305D080BD80B5806480BD8AB188608AB98AB1E3
S11305E080618AB98085813079F028F08230D9F031
S11305F0833041F108958AB18F7B8AB98AB18F77AC
S11306008AB90E94530108958AB180648AB98AB173
S11306108F778AB9818592859093A7008093A600ED
S11306200E94510108958AB18F7B8AB98AB180688A
S11306308AB9818592859093A7008093A6000E9431
S1130640510108958AB180648AB98AB180688AB9EF
S1130650818592859093A7008093A6000E94510102
S11306600895611102C05D9BFECF529B06C09AB1F2
S113067080FB90F99AB98CB908958CB908958111C9
S113068002C05F9BFECF529B03C08AB18CB101C0F4
S10D06908CB190E00895F894FFCFB8
S113069A3B003800350032003A003700340031009C
S10906AA0A1A222A323A6A
S9030000FC
