S00D00007461736B342E7372656330
S11300000C942A000C9447000C9447000C9447006D
S11300100C9447000C9447000C9447000C94470040
S11300200C9447000C9447000C9447000C94470030
S11300300C9447000C9447000C9447000C94470020
S11300400C9447000C9447000C9447000C94470010
S11300500C94470011241FBECFE5D8E0DEBFCDBF0E
S113006010E0A0E6B0E0EAEBF0E002C005900D92EB
S1130070A036B107D9F720E0A0E6B0E001C01D9298
S1130080A036B207E1F70E9449000C945B000C947F
S1130090000081B38E7F81BB81B3806281BB809B72
S11300A006C082B3806282BB8099FECFF8CF82B350
S10D00B08F7D82BBF4CFF894FFCFDC
S9030000FC
