:100000000C942A000C9449000C9472000C949B00F0
:100010000C9447000C9447000C9447000C94470044
:100020000C9447000C9447000C9447000C94470034
:100030000C9447000C9447000C9447000C94470024
:100040000C9447000C9447000C9447000C94470014
:100050000C94470011241FBECFE5D8E0DEBFCDBF12
:1000600010E0A0E6B0E0EEE5F2E002C005900D92EF
:10007000A036B107D9F720E0A0E6B0E001C01D929C
:10008000A337B207E1F70E94C6000C942D010C942F
:1000900000001F920F920FB60F9211242F933F93DF
:1000A0004F935F936F937F938F939F93AF93BF9380
:1000B000EF93FF93E0916600F0916700309709F0AD
:1000C0000995FF91EF91BF91AF919F918F917F9192
:1000D0006F915F914F913F912F910F900FBE0F90B5
:1000E0001F9018951F920F920FB60F9211242F9305
:1000F0003F934F935F936F937F938F939F93AF93B0
:10010000BF93EF93FF93E0916200F091630030970B
:1001100009F00995FF91EF91BF91AF919F918F9158
:100120007F916F915F914F913F912F910F900FBEF3
:100130000F901F9018951F920F920FB60F921124D7
:100140002F933F934F935F936F937F938F939F93DF
:10015000AF93BF93EF93FF93E0916400F09165003C
:10016000309709F00995FF91EF91BF91AF919F9161
:100170008F917F916F915F914F913F912F910F9050
:100180000FBE0F901F90189578940895E8E6F0E060
:100190001382158281E0828314821182108216827A
:1001A000CF010E94DF008FEF8ABB61E770E088E635
:1001B00090E00E942201809171008BBBF6CF1F93CB
:1001C000CF93DF93FC010097C1F19093610080937E
:1001D00060008381182F1064803149F497B3906BCD
:1001E00097BB97B39F7B97BB182F106508C08111F1
:1001F00006C087B3806487BB87B38F7487BB808159
:10020000182B8181182B8481811103C08281182BC6
:1002100005C08281182B8EB181608EB98581182B23
:100220008681803831F4EF010E94C4008E81182B42
:1002300001C0182B1DB981E001C080E0DF91CF9192
:100240001F910895892B39F0779BFECF8FB1FB0169
:0E025000808381E0089580E00895F894FFCF48
:00000001FF
