:100000000C942A000C943F000C943F000C943F0089
:100010000C943F000C943F000C943F000C943F0064
:100020000C943F000C943F000C943F000C943F0054
:100030000C943F000C943F000C943F000C943F0044
:100040000C943F000C943F000C943F000C943F0034
:100050000C943F0011241FBECFE5D8E0DEBFCDBF1A
:1000600010E0A0E6B0E0E8E5F1E002C005900D92F6
:10007000A836B107D9F70E9441000C94AA000C944D
:1000800000008AB381608ABB8AB382608ABB8AB36C
:1000900084608ABB8AB388608ABB8AB380618ABB6A
:1000A0008AB380628ABB8AB380648ABB8AB3806861
:1000B0008ABB20E030E019C04BB3F901E05AFF4F92
:1000C00081E090E0008002C0880F991F0A94E2F757
:1000D000842B8BBB4FEF84E39CE0415080409040E9
:1000E000E1F700C000002F5F3F4F2830310524F3B7
:1000F0002FEF44E38CE0215040408040E1F700C006
:10010000000027E030E01AC04BB3F901E05AFF4F7E
:1001100081E090E0008002C0880F991F0A94E2F706
:10012000809584238BBB9FEF44E38CE0915040404B
:100130008040E1F700C0000021503109332324F74B
:100140009FEF24E34CE0915020404040E1F700C095
:080150000000AFCFF894FFCFCF
:08015800000102030405060783
:00000001FF
