:100000000C942A000C9447000C9447000C94470071
:100010000C9447000C9447000C9447000C94470044
:100020000C9447000C9447000C9447000C94470034
:100030000C9447000C9447000C9447000C94470024
:100040000C9447000C9447000C9447000C94470014
:100050000C94470011241FBECFE5D8E0DEBFCDBF12
:1000600010E0A0E6B0E0E8E5F1E002C005900D92F6
:10007000A836B107D9F720E0A8E6B0E001C01D928C
:10008000AA36B207E1F70E9449000C94AA000C942A
:1000900000008AB381608ABB8AB382608ABB8AB35C
:1000A00084608ABB8AB388608ABB8AB380618ABB5A
:1000B0008AB380628ABB8AB380648ABB8AB3806851
:1000C0008ABB81B38E7F81BB1AC0809B18C09C0104
:1000D0002F5F3F4F3093690020936800FC01E05A86
:1000E000FF4F21E030E0C901008002C0880F991F56
:1000F0000A94E2F79BB3892B8BBB8099FECF80914A
:1001000068009091690088309105FCF21CC0809BCA
:100110001AC09C0121503109309369002093680076
:10012000FC01E05AFF4F21E030E0C901008002C02D
:10013000880F991F0A94E2F7809590959BB38923C5
:100140008BBB8099FECF80916800909169009923C4
:08015000F4F6D5CFF894FFCFBF
:08015800000102030405060783
:00000001FF
