:100000000C942A000C946A000C9486000C94A200B4
:100010000C9434000C9434000C9434000C94340090
:100020000C9434000C9434000C9434000C94340080
:100030000C9434000C9434000C9434000C94340070
:100040000C9434000C9434000C9434000C94340060
:100050000C94340011241FBECFE5D8E0DEBFCDBF25
:100060000E945C000C94BE000C94000085B7816077
:1000700085BF85B78D7F85BF85B7846085BF85B710
:10008000886085BF84B78F7B84BF8BB780688BBF48
:100090008BB780648BBF8BB780628BBF8FB7806854
:1000A0008FBF089581B3806281BB81B3806481BBBF
:1000B00081B3806881BB08950E9452000E9436007F
:1000C00082B38F7D82BB82B38F7B82BB82B38F77FB
:1000D00082BBF6CF1F920F920FB60F9211242F936F
:1000E0008F939F9382B3806282BB2FE78AE196E071
:1000F000215080409040E1F700C000009F918F9117
:100100002F910F900FBE0F901F9018951F920F9276
:100110000FB60F9211242F938F939F9382B3806415
:1001200082BB2FE78AE196E0215080409040E1F7C2
:1001300000C000009F918F912F910F900FBE0F90E4
:100140001F9018951F920F920FB60F9211242F93A4
:100150008F939F9382B3806882BB2FE78AE196E0FA
:10016000215080409040E1F700C000009F918F91A6
:100170002F910F900FBE0F901F901895F894FFCFFE
:00000001FF
