S017000041746D65676133325F4452495645522E737265632E
S11300000C942A000C9449000C9472000C949B00EC
S11300100C9447000C9447000C9447000C94470040
S11300200C9447000C9447000C94DD000C940901D7
S11300300C9447000C9447000C9447000C94470020
S11300400C9447000C9447000C9447000C94470010
S11300500C94470011241FBECFE5D8E0DEBFCDBF0E
S113006010E0A0E6B0E0E6E8F2E002C005900D92F0
S1130070A036B107D9F720E0A0E6B0E001C01D9298
S1130080AE36B207E1F70E94C4000C9441010C940F
S113009000001F920F920FB60F9211242F933F93DB
S11300A04F935F936F937F938F939F93AF93BF937C
S11300B0EF93FF93E0916400F0916500309709F0AD
S11300C00995FF91EF91BF91AF919F918F917F918E
S11300D06F915F914F913F912F910F900FBE0F90B1
S11300E01F9018951F920F920FB60F9211242F9301
S11300F03F934F935F936F937F938F939F93AF93AC
S1130100BF93EF93FF93E0916000F091610030970B
S113011009F00995FF91EF91BF91AF919F918F9154
S11301207F916F915F914F913F912F910F900FBEEF
S11301300F901F9018951F920F920FB60F921124D3
S11301402F933F934F935F936F937F938F939F93DB
S1130150AF93BF93EF93FF93E0916200F09163003C
S1130160309709F00995FF91EF91BF91AF919F915D
S11301708F917F916F915F914F913F912F910F904C
S11301800FBE0F901F90189584B395B3816095BBF3
S113019084BB0E943A0185B396B321E0822796BBC3
S11301A085BB8FEF91E12AE7815090402040E1F731
S11301B000C000000E943501ECCF1F920F920FB6D1
S11301C00F9211242F933F934F935F936F937F93D9
S11301D08F939F93AF93BF93EF93FF9380916900A5
S11301E08F5F80936900E0916C00F0916D00099538
S11301F0FF91EF91BF91AF919F918F917F916F91FB
S11302005F914F913F912F910F900FBE0F901F90D0
S113021018951F920F920FB60F9211242F933F93AC
S11302204F935F936F937F938F939F93AF93BF93FA
S1130230EF93FF93809166008F5F80936600E09157
S11302406A00F0916B000995FF91EF91BF91AF9116
S11302509F918F917F916F915F914F913F912F91DA
S11302600F900FBE0F901F90189581B5886181BDC6
S113027011BC089581B58E6081BD81B58E7F81BD2D
S10902800895F894FFCF7D
S9030000FC
